{
  "_format": "hh-sol-artifact-1",
  "contractName": "TodaysNFT",
  "sourceName": "contracts/TodaysNFT.sol",
  "abi": [
    {
      "inputs": [],
      "stateMutability": "nonpayable",
      "type": "constructor"
    },
    {
      "anonymous": false,
      "inputs": [
        {
          "indexed": true,
          "internalType": "address",
          "name": "owner",
          "type": "address"
        },
        {
          "indexed": true,
          "internalType": "address",
          "name": "approved",
          "type": "address"
        },
        {
          "indexed": true,
          "internalType": "uint256",
          "name": "tokenId",
          "type": "uint256"
        }
      ],
      "name": "Approval",
      "type": "event"
    },
    {
      "anonymous": false,
      "inputs": [
        {
          "indexed": true,
          "internalType": "address",
          "name": "owner",
          "type": "address"
        },
        {
          "indexed": true,
          "internalType": "address",
          "name": "operator",
          "type": "address"
        },
        {
          "indexed": false,
          "internalType": "bool",
          "name": "approved",
          "type": "bool"
        }
      ],
      "name": "ApprovalForAll",
      "type": "event"
    },
    {
      "anonymous": false,
      "inputs": [
        {
          "indexed": false,
          "internalType": "uint256",
          "name": "_fromTokenId",
          "type": "uint256"
        },
        {
          "indexed": false,
          "internalType": "uint256",
          "name": "_toTokenId",
          "type": "uint256"
        }
      ],
      "name": "BatchMetadataUpdate",
      "type": "event"
    },
    {
      "anonymous": false,
      "inputs": [
        {
          "indexed": false,
          "internalType": "uint256",
          "name": "_tokenId",
          "type": "uint256"
        }
      ],
      "name": "MetadataUpdate",
      "type": "event"
    },
    {
      "anonymous": false,
      "inputs": [
        {
          "indexed": true,
          "internalType": "address",
          "name": "previousOwner",
          "type": "address"
        },
        {
          "indexed": true,
          "internalType": "address",
          "name": "newOwner",
          "type": "address"
        }
      ],
      "name": "OwnershipTransferred",
      "type": "event"
    },
    {
      "anonymous": false,
      "inputs": [
        {
          "indexed": true,
          "internalType": "address",
          "name": "from",
          "type": "address"
        },
        {
          "indexed": true,
          "internalType": "address",
          "name": "to",
          "type": "address"
        },
        {
          "indexed": true,
          "internalType": "uint256",
          "name": "tokenId",
          "type": "uint256"
        }
      ],
      "name": "Transfer",
      "type": "event"
    },
    {
      "inputs": [
        {
          "internalType": "address",
          "name": "to",
          "type": "address"
        },
        {
          "internalType": "uint256",
          "name": "tokenId",
          "type": "uint256"
        }
      ],
      "name": "approve",
      "outputs": [],
      "stateMutability": "nonpayable",
      "type": "function"
    },
    {
      "inputs": [
        {
          "internalType": "address",
          "name": "owner",
          "type": "address"
        }
      ],
      "name": "balanceOf",
      "outputs": [
        {
          "internalType": "uint256",
          "name": "",
          "type": "uint256"
        }
      ],
      "stateMutability": "view",
      "type": "function"
    },
    {
      "inputs": [
        {
          "internalType": "uint256",
          "name": "tokenId",
          "type": "uint256"
        }
      ],
      "name": "getApproved",
      "outputs": [
        {
          "internalType": "address",
          "name": "",
          "type": "address"
        }
      ],
      "stateMutability": "view",
      "type": "function"
    },
    {
      "inputs": [
        {
          "internalType": "address",
          "name": "owner",
          "type": "address"
        },
        {
          "internalType": "address",
          "name": "operator",
          "type": "address"
        }
      ],
      "name": "isApprovedForAll",
      "outputs": [
        {
          "internalType": "bool",
          "name": "",
          "type": "bool"
        }
      ],
      "stateMutability": "view",
      "type": "function"
    },
    {
      "inputs": [
        {
          "internalType": "string",
          "name": "tokenURI",
          "type": "string"
        }
      ],
      "name": "mintNFT",
      "outputs": [
        {
          "internalType": "uint256",
          "name": "",
          "type": "uint256"
        }
      ],
      "stateMutability": "nonpayable",
      "type": "function"
    },
    {
      "inputs": [],
      "name": "name",
      "outputs": [
        {
          "internalType": "string",
          "name": "",
          "type": "string"
        }
      ],
      "stateMutability": "view",
      "type": "function"
    },
    {
      "inputs": [],
      "name": "owner",
      "outputs": [
        {
          "internalType": "address",
          "name": "",
          "type": "address"
        }
      ],
      "stateMutability": "view",
      "type": "function"
    },
    {
      "inputs": [
        {
          "internalType": "uint256",
          "name": "tokenId",
          "type": "uint256"
        }
      ],
      "name": "ownerOf",
      "outputs": [
        {
          "internalType": "address",
          "name": "",
          "type": "address"
        }
      ],
      "stateMutability": "view",
      "type": "function"
    },
    {
      "inputs": [
        {
          "internalType": "address",
          "name": "",
          "type": "address"
        }
      ],
      "name": "pendingWinners",
      "outputs": [
        {
          "internalType": "bool",
          "name": "",
          "type": "bool"
        }
      ],
      "stateMutability": "view",
      "type": "function"
    },
    {
      "inputs": [],
      "name": "renounceOwnership",
      "outputs": [],
      "stateMutability": "nonpayable",
      "type": "function"
    },
    {
      "inputs": [
        {
          "internalType": "address",
          "name": "from",
          "type": "address"
        },
        {
          "internalType": "address",
          "name": "to",
          "type": "address"
        },
        {
          "internalType": "uint256",
          "name": "tokenId",
          "type": "uint256"
        }
      ],
      "name": "safeTransferFrom",
      "outputs": [],
      "stateMutability": "nonpayable",
      "type": "function"
    },
    {
      "inputs": [
        {
          "internalType": "address",
          "name": "from",
          "type": "address"
        },
        {
          "internalType": "address",
          "name": "to",
          "type": "address"
        },
        {
          "internalType": "uint256",
          "name": "tokenId",
          "type": "uint256"
        },
        {
          "internalType": "bytes",
          "name": "data",
          "type": "bytes"
        }
      ],
      "name": "safeTransferFrom",
      "outputs": [],
      "stateMutability": "nonpayable",
      "type": "function"
    },
    {
      "inputs": [
        {
          "internalType": "address",
          "name": "operator",
          "type": "address"
        },
        {
          "internalType": "bool",
          "name": "approved",
          "type": "bool"
        }
      ],
      "name": "setApprovalForAll",
      "outputs": [],
      "stateMutability": "nonpayable",
      "type": "function"
    },
    {
      "inputs": [
        {
          "internalType": "address",
          "name": "_address",
          "type": "address"
        }
      ],
      "name": "setPendingWinner",
      "outputs": [],
      "stateMutability": "nonpayable",
      "type": "function"
    },
    {
      "inputs": [
        {
          "internalType": "bytes4",
          "name": "interfaceId",
          "type": "bytes4"
        }
      ],
      "name": "supportsInterface",
      "outputs": [
        {
          "internalType": "bool",
          "name": "",
          "type": "bool"
        }
      ],
      "stateMutability": "view",
      "type": "function"
    },
    {
      "inputs": [],
      "name": "symbol",
      "outputs": [
        {
          "internalType": "string",
          "name": "",
          "type": "string"
        }
      ],
      "stateMutability": "view",
      "type": "function"
    },
    {
      "inputs": [],
      "name": "tokenCounter",
      "outputs": [
        {
          "internalType": "uint256",
          "name": "",
          "type": "uint256"
        }
      ],
      "stateMutability": "view",
      "type": "function"
    },
    {
      "inputs": [
        {
          "internalType": "uint256",
          "name": "tokenId",
          "type": "uint256"
        }
      ],
      "name": "tokenURI",
      "outputs": [
        {
          "internalType": "string",
          "name": "",
          "type": "string"
        }
      ],
      "stateMutability": "view",
      "type": "function"
    },
    {
      "inputs": [
        {
          "internalType": "address",
          "name": "from",
          "type": "address"
        },
        {
          "internalType": "address",
          "name": "to",
          "type": "address"
        },
        {
          "internalType": "uint256",
          "name": "tokenId",
          "type": "uint256"
        }
      ],
      "name": "transferFrom",
      "outputs": [],
      "stateMutability": "nonpayable",
      "type": "function"
    },
    {
      "inputs": [
        {
          "internalType": "address",
          "name": "newOwner",
          "type": "address"
        }
      ],
      "name": "transferOwnership",
      "outputs": [],
      "stateMutability": "nonpayable",
      "type": "function"
    }
  ],
  "bytecode": "0x608060405234801561001057600080fd5b506040518060400160405280600981526020017f546f646179734e465400000000000000000000000000000000000000000000008152506040518060400160405280600381526020017f54444e0000000000000000000000000000000000000000000000000000000000815250816000908161008c91906103e6565b50806001908161009c91906103e6565b5050506100bb6100b06100c860201b60201c565b6100d060201b60201c565b60006008819055506104b8565b600033905090565b6000600760009054906101000a900473ffffffffffffffffffffffffffffffffffffffff16905081600760006101000a81548173ffffffffffffffffffffffffffffffffffffffff021916908373ffffffffffffffffffffffffffffffffffffffff1602179055508173ffffffffffffffffffffffffffffffffffffffff168173ffffffffffffffffffffffffffffffffffffffff167f8be0079c531659141344cd1fd0a4f28419497f9722a3daafe3b4186f6b6457e060405160405180910390a35050565b600081519050919050565b7f4e487b7100000000000000000000000000000000000000000000000000000000600052604160045260246000fd5b7f4e487b7100000000000000000000000000000000000000000000000000000000600052602260045260246000fd5b6000600282049050600182168061021757607f821691505b60208210810361022a576102296101d0565b5b50919050565b60008190508160005260206000209050919050565b60006020601f8301049050919050565b600082821b905092915050565b6000600883026102927fffffffffffffffffffffffffffffffffffffffffffffffffffffffffffffffff82610255565b61029c8683610255565b95508019841693508086168417925050509392505050565b6000819050919050565b6000819050919050565b60006102e36102de6102d9846102b4565b6102be565b6102b4565b9050919050565b6000819050919050565b6102fd836102c8565b610311610309826102ea565b848454610262565b825550505050565b600090565b610326610319565b6103318184846102f4565b505050565b5b818110156103555761034a60008261031e565b600181019050610337565b5050565b601f82111561039a5761036b81610230565b61037484610245565b81016020851015610383578190505b61039761038f85610245565b830182610336565b50505b505050565b600082821c905092915050565b60006103bd6000198460080261039f565b1980831691505092915050565b60006103d683836103ac565b9150826002028217905092915050565b6103ef82610196565b67ffffffffffffffff811115610408576104076101a1565b5b61041282546101ff565b61041d828285610359565b600060209050601f831160018114610450576000841561043e578287015190505b61044885826103ca565b8655506104b0565b601f19841661045e86610230565b60005b8281101561048657848901518255600182019150602085019450602081019050610461565b868310156104a3578489015161049f601f8916826103ac565b8355505b6001600288020188555050505b505050505050565b613008806104c76000396000f3fe608060405234801561001057600080fd5b506004361061012c5760003560e01c80638da5cb5b116100ad578063c87b56dd11610071578063c87b56dd1461032d578063d082e3811461035d578063e985e9c51461037b578063f2fde38b146103ab578063fb37e883146103c75761012c565b80638da5cb5b146102895780639226b0ff146102a757806395d89b41146102d7578063a22cb465146102f5578063b88d4fde146103115761012c565b8063388973ff116100f4578063388973ff146101e757806342842e0e146102035780636352211e1461021f57806370a082311461024f578063715018a61461027f5761012c565b806301ffc9a71461013157806306fdde0314610161578063081812fc1461017f578063095ea7b3146101af57806323b872dd146101cb575b600080fd5b61014b60048036038101906101469190611da9565b6103f7565b6040516101589190611df1565b60405180910390f35b610169610458565b6040516101769190611e9c565b60405180910390f35b61019960048036038101906101949190611ef4565b6104ea565b6040516101a69190611f62565b60405180910390f35b6101c960048036038101906101c49190611fa9565b610530565b005b6101e560048036038101906101e09190611fe9565b610647565b005b61020160048036038101906101fc919061203c565b6106a7565b005b61021d60048036038101906102189190611fe9565b61070a565b005b61023960048036038101906102349190611ef4565b61072a565b6040516102469190611f62565b60405180910390f35b6102696004803603810190610264919061203c565b6107b0565b6040516102769190612078565b60405180910390f35b610287610867565b005b61029161087b565b60405161029e9190611f62565b60405180910390f35b6102c160048036038101906102bc919061203c565b6108a5565b6040516102ce9190611df1565b60405180910390f35b6102df6108c5565b6040516102ec9190611e9c565b60405180910390f35b61030f600480360381019061030a91906120bf565b610957565b005b61032b60048036038101906103269190612234565b61096d565b005b61034760048036038101906103429190611ef4565b6109cf565b6040516103549190611e9c565b60405180910390f35b610365610ae1565b6040516103729190612078565b60405180910390f35b610395600480360381019061039091906122b7565b610ae7565b6040516103a29190611df1565b60405180910390f35b6103c560048036038101906103c0919061203c565b610b7b565b005b6103e160048036038101906103dc9190612398565b610bfe565b6040516103ee9190612078565b60405180910390f35b6000634906490660e01b7bffffffffffffffffffffffffffffffffffffffffffffffffffffffff1916827bffffffffffffffffffffffffffffffffffffffffffffffffffffffff19161480610451575061045082610c3d565b5b9050919050565b60606000805461046790612410565b80601f016020809104026020016040519081016040528092919081815260200182805461049390612410565b80156104e05780601f106104b5576101008083540402835291602001916104e0565b820191906000526020600020905b8154815290600101906020018083116104c357829003601f168201915b5050505050905090565b60006104f582610d1f565b6004600083815260200190815260200160002060009054906101000a900473ffffffffffffffffffffffffffffffffffffffff169050919050565b600061053b8261072a565b90508073ffffffffffffffffffffffffffffffffffffffff168373ffffffffffffffffffffffffffffffffffffffff16036105ab576040517f08c379a00000000000000000000000000000000000000000000000000000000081526004016105a2906124b3565b60405180910390fd5b8073ffffffffffffffffffffffffffffffffffffffff166105ca610d6a565b73ffffffffffffffffffffffffffffffffffffffff1614806105f957506105f8816105f3610d6a565b610ae7565b5b610638576040517f08c379a000000000000000000000000000000000000000000000000000000000815260040161062f90612545565b60405180910390fd5b6106428383610d72565b505050565b610658610652610d6a565b82610e2b565b610697576040517f08c379a000000000000000000000000000000000000000000000000000000000815260040161068e906125d7565b60405180910390fd5b6106a2838383610ec0565b505050565b6106af6111b9565b6001600960008373ffffffffffffffffffffffffffffffffffffffff1673ffffffffffffffffffffffffffffffffffffffff16815260200190815260200160002060006101000a81548160ff02191690831515021790555050565b6107258383836040518060200160405280600081525061096d565b505050565b60008061073683611237565b9050600073ffffffffffffffffffffffffffffffffffffffff168173ffffffffffffffffffffffffffffffffffffffff16036107a7576040517f08c379a000000000000000000000000000000000000000000000000000000000815260040161079e90612643565b60405180910390fd5b80915050919050565b60008073ffffffffffffffffffffffffffffffffffffffff168273ffffffffffffffffffffffffffffffffffffffff1603610820576040517f08c379a0000000000000000000000000000000000000000000000000000000008152600401610817906126d5565b60405180910390fd5b600360008373ffffffffffffffffffffffffffffffffffffffff1673ffffffffffffffffffffffffffffffffffffffff168152602001908152602001600020549050919050565b61086f6111b9565b6108796000611274565b565b6000600760009054906101000a900473ffffffffffffffffffffffffffffffffffffffff16905090565b60096020528060005260406000206000915054906101000a900460ff1681565b6060600180546108d490612410565b80601f016020809104026020016040519081016040528092919081815260200182805461090090612410565b801561094d5780601f106109225761010080835404028352916020019161094d565b820191906000526020600020905b81548152906001019060200180831161093057829003601f168201915b5050505050905090565b610969610962610d6a565b838361133a565b5050565b61097e610978610d6a565b83610e2b565b6109bd576040517f08c379a00000000000000000000000000000000000000000000000000000000081526004016109b4906125d7565b60405180910390fd5b6109c9848484846114a6565b50505050565b60606109da82610d1f565b60006006600084815260200190815260200160002080546109fa90612410565b80601f0160208091040260200160405190810160405280929190818152602001828054610a2690612410565b8015610a735780601f10610a4857610100808354040283529160200191610a73565b820191906000526020600020905b815481529060010190602001808311610a5657829003601f168201915b505050505090506000610a84611502565b90506000815103610a99578192505050610adc565b600082511115610ace578082604051602001610ab6929190612731565b60405160208183030381529060405292505050610adc565b610ad784611519565b925050505b919050565b60085481565b6000600560008473ffffffffffffffffffffffffffffffffffffffff1673ffffffffffffffffffffffffffffffffffffffff16815260200190815260200160002060008373ffffffffffffffffffffffffffffffffffffffff1673ffffffffffffffffffffffffffffffffffffffff16815260200190815260200160002060009054906101000a900460ff16905092915050565b610b836111b9565b600073ffffffffffffffffffffffffffffffffffffffff168173ffffffffffffffffffffffffffffffffffffffff1603610bf2576040517f08c379a0000000000000000000000000000000000000000000000000000000008152600401610be9906127c7565b60405180910390fd5b610bfb81611274565b50565b6000806008549050610c103382611581565b610c1a818461159f565b600160086000828254610c2d9190612816565b9250508190555080915050919050565b60007f80ac58cd000000000000000000000000000000000000000000000000000000007bffffffffffffffffffffffffffffffffffffffffffffffffffffffff1916827bffffffffffffffffffffffffffffffffffffffffffffffffffffffff19161480610d0857507f5b5e139f000000000000000000000000000000000000000000000000000000007bffffffffffffffffffffffffffffffffffffffffffffffffffffffff1916827bffffffffffffffffffffffffffffffffffffffffffffffffffffffff1916145b80610d185750610d1782611643565b5b9050919050565b610d28816116ad565b610d67576040517f08c379a0000000000000000000000000000000000000000000000000000000008152600401610d5e90612643565b60405180910390fd5b50565b600033905090565b816004600083815260200190815260200160002060006101000a81548173ffffffffffffffffffffffffffffffffffffffff021916908373ffffffffffffffffffffffffffffffffffffffff160217905550808273ffffffffffffffffffffffffffffffffffffffff16610de58361072a565b73ffffffffffffffffffffffffffffffffffffffff167f8c5be1e5ebec7d5bd14f71427d1e84f3dd0314c0f7b2291e5b200ac8c7c3b92560405160405180910390a45050565b600080610e378361072a565b90508073ffffffffffffffffffffffffffffffffffffffff168473ffffffffffffffffffffffffffffffffffffffff161480610e795750610e788185610ae7565b5b80610eb757508373ffffffffffffffffffffffffffffffffffffffff16610e9f846104ea565b73ffffffffffffffffffffffffffffffffffffffff16145b91505092915050565b8273ffffffffffffffffffffffffffffffffffffffff16610ee08261072a565b73ffffffffffffffffffffffffffffffffffffffff1614610f36576040517f08c379a0000000000000000000000000000000000000000000000000000000008152600401610f2d906128bc565b60405180910390fd5b600073ffffffffffffffffffffffffffffffffffffffff168273ffffffffffffffffffffffffffffffffffffffff1603610fa5576040517f08c379a0000000000000000000000000000000000000000000000000000000008152600401610f9c9061294e565b60405180910390fd5b610fb283838360016116ee565b8273ffffffffffffffffffffffffffffffffffffffff16610fd28261072a565b73ffffffffffffffffffffffffffffffffffffffff1614611028576040517f08c379a000000000000000000000000000000000000000000000000000000000815260040161101f906128bc565b60405180910390fd5b6004600082815260200190815260200160002060006101000a81549073ffffffffffffffffffffffffffffffffffffffff02191690556001600360008573ffffffffffffffffffffffffffffffffffffffff1673ffffffffffffffffffffffffffffffffffffffff168152602001908152602001600020600082825403925050819055506001600360008473ffffffffffffffffffffffffffffffffffffffff1673ffffffffffffffffffffffffffffffffffffffff16815260200190815260200160002060008282540192505081905550816002600083815260200190815260200160002060006101000a81548173ffffffffffffffffffffffffffffffffffffffff021916908373ffffffffffffffffffffffffffffffffffffffff160217905550808273ffffffffffffffffffffffffffffffffffffffff168473ffffffffffffffffffffffffffffffffffffffff167fddf252ad1be2c89b69c2b068fc378daa952ba7f163c4a11628f55a4df523b3ef60405160405180910390a46111b483838360016116f4565b505050565b6111c1610d6a565b73ffffffffffffffffffffffffffffffffffffffff166111df61087b565b73ffffffffffffffffffffffffffffffffffffffff1614611235576040517f08c379a000000000000000000000000000000000000000000000000000000000815260040161122c906129ba565b60405180910390fd5b565b60006002600083815260200190815260200160002060009054906101000a900473ffffffffffffffffffffffffffffffffffffffff169050919050565b6000600760009054906101000a900473ffffffffffffffffffffffffffffffffffffffff16905081600760006101000a81548173ffffffffffffffffffffffffffffffffffffffff021916908373ffffffffffffffffffffffffffffffffffffffff1602179055508173ffffffffffffffffffffffffffffffffffffffff168173ffffffffffffffffffffffffffffffffffffffff167f8be0079c531659141344cd1fd0a4f28419497f9722a3daafe3b4186f6b6457e060405160405180910390a35050565b8173ffffffffffffffffffffffffffffffffffffffff168373ffffffffffffffffffffffffffffffffffffffff16036113a8576040517f08c379a000000000000000000000000000000000000000000000000000000000815260040161139f90612a26565b60405180910390fd5b80600560008573ffffffffffffffffffffffffffffffffffffffff1673ffffffffffffffffffffffffffffffffffffffff16815260200190815260200160002060008473ffffffffffffffffffffffffffffffffffffffff1673ffffffffffffffffffffffffffffffffffffffff16815260200190815260200160002060006101000a81548160ff0219169083151502179055508173ffffffffffffffffffffffffffffffffffffffff168373ffffffffffffffffffffffffffffffffffffffff167f17307eab39ab6107e8899845ad3d59bd9653f200f220920489ca2b5937696c31836040516114999190611df1565b60405180910390a3505050565b6114b1848484610ec0565b6114bd848484846116fa565b6114fc576040517f08c379a00000000000000000000000000000000000000000000000000000000081526004016114f390612ab8565b60405180910390fd5b50505050565b606060405180602001604052806000815250905090565b606061152482610d1f565b600061152e611502565b9050600081511161154e5760405180602001604052806000815250611579565b8061155884611881565b604051602001611569929190612731565b6040516020818303038152906040525b915050919050565b61159b82826040518060200160405280600081525061194f565b5050565b6115a8826116ad565b6115e7576040517f08c379a00000000000000000000000000000000000000000000000000000000081526004016115de90612b4a565b60405180910390fd5b806006600084815260200190815260200160002090816116079190612d16565b507ff8e1a15aba9398e019f0b49df1a4fde98ee17ae345cb5f6b5e2c27f5033e8ce7826040516116379190612078565b60405180910390a15050565b60007f01ffc9a7000000000000000000000000000000000000000000000000000000007bffffffffffffffffffffffffffffffffffffffffffffffffffffffff1916827bffffffffffffffffffffffffffffffffffffffffffffffffffffffff1916149050919050565b60008073ffffffffffffffffffffffffffffffffffffffff166116cf83611237565b73ffffffffffffffffffffffffffffffffffffffff1614159050919050565b50505050565b50505050565b600061171b8473ffffffffffffffffffffffffffffffffffffffff166119aa565b15611874578373ffffffffffffffffffffffffffffffffffffffff1663150b7a02611744610d6a565b8786866040518563ffffffff1660e01b81526004016117669493929190612e3d565b6020604051808303816000875af19250505080156117a257506040513d601f19601f8201168201806040525081019061179f9190612e9e565b60015b611824573d80600081146117d2576040519150601f19603f3d011682016040523d82523d6000602084013e6117d7565b606091505b50600081510361181c576040517f08c379a000000000000000000000000000000000000000000000000000000000815260040161181390612ab8565b60405180910390fd5b805181602001fd5b63150b7a0260e01b7bffffffffffffffffffffffffffffffffffffffffffffffffffffffff1916817bffffffffffffffffffffffffffffffffffffffffffffffffffffffff191614915050611879565b600190505b949350505050565b606060006001611890846119cd565b01905060008167ffffffffffffffff8111156118af576118ae612109565b5b6040519080825280601f01601f1916602001820160405280156118e15781602001600182028036833780820191505090505b509050600082602001820190505b600115611944578080600190039150507f3031323334353637383961626364656600000000000000000000000000000000600a86061a8153600a858161193857611937612ecb565b5b049450600085036118ef575b819350505050919050565b6119598383611b20565b61196660008484846116fa565b6119a5576040517f08c379a000000000000000000000000000000000000000000000000000000000815260040161199c90612ab8565b60405180910390fd5b505050565b6000808273ffffffffffffffffffffffffffffffffffffffff163b119050919050565b600080600090507a184f03e93ff9f4daa797ed6e38ed64bf6a1f0100000000000000008310611a2b577a184f03e93ff9f4daa797ed6e38ed64bf6a1f0100000000000000008381611a2157611a20612ecb565b5b0492506040810190505b6d04ee2d6d415b85acef81000000008310611a68576d04ee2d6d415b85acef81000000008381611a5e57611a5d612ecb565b5b0492506020810190505b662386f26fc100008310611a9757662386f26fc100008381611a8d57611a8c612ecb565b5b0492506010810190505b6305f5e1008310611ac0576305f5e1008381611ab657611ab5612ecb565b5b0492506008810190505b6127108310611ae5576127108381611adb57611ada612ecb565b5b0492506004810190505b60648310611b085760648381611afe57611afd612ecb565b5b0492506002810190505b600a8310611b17576001810190505b80915050919050565b600073ffffffffffffffffffffffffffffffffffffffff168273ffffffffffffffffffffffffffffffffffffffff1603611b8f576040517f08c379a0000000000000000000000000000000000000000000000000000000008152600401611b8690612f46565b60405180910390fd5b611b98816116ad565b15611bd8576040517f08c379a0000000000000000000000000000000000000000000000000000000008152600401611bcf90612fb2565b60405180910390fd5b611be66000838360016116ee565b611bef816116ad565b15611c2f576040517f08c379a0000000000000000000000000000000000000000000000000000000008152600401611c2690612fb2565b60405180910390fd5b6001600360008473ffffffffffffffffffffffffffffffffffffffff1673ffffffffffffffffffffffffffffffffffffffff16815260200190815260200160002060008282540192505081905550816002600083815260200190815260200160002060006101000a81548173ffffffffffffffffffffffffffffffffffffffff021916908373ffffffffffffffffffffffffffffffffffffffff160217905550808273ffffffffffffffffffffffffffffffffffffffff16600073ffffffffffffffffffffffffffffffffffffffff167fddf252ad1be2c89b69c2b068fc378daa952ba7f163c4a11628f55a4df523b3ef60405160405180910390a4611d396000838360016116f4565b5050565b6000604051905090565b600080fd5b600080fd5b60007fffffffff0000000000000000000000000000000000000000000000000000000082169050919050565b611d8681611d51565b8114611d9157600080fd5b50565b600081359050611da381611d7d565b92915050565b600060208284031215611dbf57611dbe611d47565b5b6000611dcd84828501611d94565b91505092915050565b60008115159050919050565b611deb81611dd6565b82525050565b6000602082019050611e066000830184611de2565b92915050565b600081519050919050565b600082825260208201905092915050565b60005b83811015611e46578082015181840152602081019050611e2b565b60008484015250505050565b6000601f19601f8301169050919050565b6000611e6e82611e0c565b611e788185611e17565b9350611e88818560208601611e28565b611e9181611e52565b840191505092915050565b60006020820190508181036000830152611eb68184611e63565b905092915050565b6000819050919050565b611ed181611ebe565b8114611edc57600080fd5b50565b600081359050611eee81611ec8565b92915050565b600060208284031215611f0a57611f09611d47565b5b6000611f1884828501611edf565b91505092915050565b600073ffffffffffffffffffffffffffffffffffffffff82169050919050565b6000611f4c82611f21565b9050919050565b611f5c81611f41565b82525050565b6000602082019050611f776000830184611f53565b92915050565b611f8681611f41565b8114611f9157600080fd5b50565b600081359050611fa381611f7d565b92915050565b60008060408385031215611fc057611fbf611d47565b5b6000611fce85828601611f94565b9250506020611fdf85828601611edf565b9150509250929050565b60008060006060848603121561200257612001611d47565b5b600061201086828701611f94565b935050602061202186828701611f94565b925050604061203286828701611edf565b9150509250925092565b60006020828403121561205257612051611d47565b5b600061206084828501611f94565b91505092915050565b61207281611ebe565b82525050565b600060208201905061208d6000830184612069565b92915050565b61209c81611dd6565b81146120a757600080fd5b50565b6000813590506120b981612093565b92915050565b600080604083850312156120d6576120d5611d47565b5b60006120e485828601611f94565b92505060206120f5858286016120aa565b9150509250929050565b600080fd5b600080fd5b7f4e487b7100000000000000000000000000000000000000000000000000000000600052604160045260246000fd5b61214182611e52565b810181811067ffffffffffffffff821117156121605761215f612109565b5b80604052505050565b6000612173611d3d565b905061217f8282612138565b919050565b600067ffffffffffffffff82111561219f5761219e612109565b5b6121a882611e52565b9050602081019050919050565b82818337600083830152505050565b60006121d76121d284612184565b612169565b9050828152602081018484840111156121f3576121f2612104565b5b6121fe8482856121b5565b509392505050565b600082601f83011261221b5761221a6120ff565b5b813561222b8482602086016121c4565b91505092915050565b6000806000806080858703121561224e5761224d611d47565b5b600061225c87828801611f94565b945050602061226d87828801611f94565b935050604061227e87828801611edf565b925050606085013567ffffffffffffffff81111561229f5761229e611d4c565b5b6122ab87828801612206565b91505092959194509250565b600080604083850312156122ce576122cd611d47565b5b60006122dc85828601611f94565b92505060206122ed85828601611f94565b9150509250929050565b600067ffffffffffffffff82111561231257612311612109565b5b61231b82611e52565b9050602081019050919050565b600061233b612336846122f7565b612169565b90508281526020810184848401111561235757612356612104565b5b6123628482856121b5565b509392505050565b600082601f83011261237f5761237e6120ff565b5b813561238f848260208601612328565b91505092915050565b6000602082840312156123ae576123ad611d47565b5b600082013567ffffffffffffffff8111156123cc576123cb611d4c565b5b6123d88482850161236a565b91505092915050565b7f4e487b7100000000000000000000000000000000000000000000000000000000600052602260045260246000fd5b6000600282049050600182168061242857607f821691505b60208210810361243b5761243a6123e1565b5b50919050565b7f4552433732313a20617070726f76616c20746f2063757272656e74206f776e6560008201527f7200000000000000000000000000000000000000000000000000000000000000602082015250565b600061249d602183611e17565b91506124a882612441565b604082019050919050565b600060208201905081810360008301526124cc81612490565b9050919050565b7f4552433732313a20617070726f76652063616c6c6572206973206e6f7420746f60008201527f6b656e206f776e6572206f7220617070726f76656420666f7220616c6c000000602082015250565b600061252f603d83611e17565b915061253a826124d3565b604082019050919050565b6000602082019050818103600083015261255e81612522565b9050919050565b7f4552433732313a2063616c6c6572206973206e6f7420746f6b656e206f776e6560008201527f72206f7220617070726f76656400000000000000000000000000000000000000602082015250565b60006125c1602d83611e17565b91506125cc82612565565b604082019050919050565b600060208201905081810360008301526125f0816125b4565b9050919050565b7f4552433732313a20696e76616c696420746f6b656e2049440000000000000000600082015250565b600061262d601883611e17565b9150612638826125f7565b602082019050919050565b6000602082019050818103600083015261265c81612620565b9050919050565b7f4552433732313a2061646472657373207a65726f206973206e6f74206120766160008201527f6c6964206f776e65720000000000000000000000000000000000000000000000602082015250565b60006126bf602983611e17565b91506126ca82612663565b604082019050919050565b600060208201905081810360008301526126ee816126b2565b9050919050565b600081905092915050565b600061270b82611e0c565b61271581856126f5565b9350612725818560208601611e28565b80840191505092915050565b600061273d8285612700565b91506127498284612700565b91508190509392505050565b7f4f776e61626c653a206e6577206f776e657220697320746865207a65726f206160008201527f6464726573730000000000000000000000000000000000000000000000000000602082015250565b60006127b1602683611e17565b91506127bc82612755565b604082019050919050565b600060208201905081810360008301526127e0816127a4565b9050919050565b7f4e487b7100000000000000000000000000000000000000000000000000000000600052601160045260246000fd5b600061282182611ebe565b915061282c83611ebe565b9250828201905080821115612844576128436127e7565b5b92915050565b7f4552433732313a207472616e736665722066726f6d20696e636f72726563742060008201527f6f776e6572000000000000000000000000000000000000000000000000000000602082015250565b60006128a6602583611e17565b91506128b18261284a565b604082019050919050565b600060208201905081810360008301526128d581612899565b9050919050565b7f4552433732313a207472616e7366657220746f20746865207a65726f2061646460008201527f7265737300000000000000000000000000000000000000000000000000000000602082015250565b6000612938602483611e17565b9150612943826128dc565b604082019050919050565b600060208201905081810360008301526129678161292b565b9050919050565b7f4f776e61626c653a2063616c6c6572206973206e6f7420746865206f776e6572600082015250565b60006129a4602083611e17565b91506129af8261296e565b602082019050919050565b600060208201905081810360008301526129d381612997565b9050919050565b7f4552433732313a20617070726f766520746f2063616c6c657200000000000000600082015250565b6000612a10601983611e17565b9150612a1b826129da565b602082019050919050565b60006020820190508181036000830152612a3f81612a03565b9050919050565b7f4552433732313a207472616e7366657220746f206e6f6e20455243373231526560008201527f63656976657220696d706c656d656e7465720000000000000000000000000000602082015250565b6000612aa2603283611e17565b9150612aad82612a46565b604082019050919050565b60006020820190508181036000830152612ad181612a95565b9050919050565b7f45524337323155524953746f726167653a2055524920736574206f66206e6f6e60008201527f6578697374656e7420746f6b656e000000000000000000000000000000000000602082015250565b6000612b34602e83611e17565b9150612b3f82612ad8565b604082019050919050565b60006020820190508181036000830152612b6381612b27565b9050919050565b60008190508160005260206000209050919050565b60006020601f8301049050919050565b600082821b905092915050565b600060088302612bcc7fffffffffffffffffffffffffffffffffffffffffffffffffffffffffffffffff82612b8f565b612bd68683612b8f565b95508019841693508086168417925050509392505050565b6000819050919050565b6000612c13612c0e612c0984611ebe565b612bee565b611ebe565b9050919050565b6000819050919050565b612c2d83612bf8565b612c41612c3982612c1a565b848454612b9c565b825550505050565b600090565b612c56612c49565b612c61818484612c24565b505050565b5b81811015612c8557612c7a600082612c4e565b600181019050612c67565b5050565b601f821115612cca57612c9b81612b6a565b612ca484612b7f565b81016020851015612cb3578190505b612cc7612cbf85612b7f565b830182612c66565b50505b505050565b600082821c905092915050565b6000612ced60001984600802612ccf565b1980831691505092915050565b6000612d068383612cdc565b9150826002028217905092915050565b612d1f82611e0c565b67ffffffffffffffff811115612d3857612d37612109565b5b612d428254612410565b612d4d828285612c89565b600060209050601f831160018114612d805760008415612d6e578287015190505b612d788582612cfa565b865550612de0565b601f198416612d8e86612b6a565b60005b82811015612db657848901518255600182019150602085019450602081019050612d91565b86831015612dd35784890151612dcf601f891682612cdc565b8355505b6001600288020188555050505b505050505050565b600081519050919050565b600082825260208201905092915050565b6000612e0f82612de8565b612e198185612df3565b9350612e29818560208601611e28565b612e3281611e52565b840191505092915050565b6000608082019050612e526000830187611f53565b612e5f6020830186611f53565b612e6c6040830185612069565b8181036060830152612e7e8184612e04565b905095945050505050565b600081519050612e9881611d7d565b92915050565b600060208284031215612eb457612eb3611d47565b5b6000612ec284828501612e89565b91505092915050565b7f4e487b7100000000000000000000000000000000000000000000000000000000600052601260045260246000fd5b7f4552433732313a206d696e7420746f20746865207a65726f2061646472657373600082015250565b6000612f30602083611e17565b9150612f3b82612efa565b602082019050919050565b60006020820190508181036000830152612f5f81612f23565b9050919050565b7f4552433732313a20746f6b656e20616c7265616479206d696e74656400000000600082015250565b6000612f9c601c83611e17565b9150612fa782612f66565b602082019050919050565b60006020820190508181036000830152612fcb81612f8f565b905091905056fea26469706673582212202f8bbf2f13a610ed5dddf08a8b5590622f452e34965d6f8407c32757dcf4e84464736f6c634300081c0033",
  "linkReferences": {},
  "deployedLinkReferences": {}
}